:100000000C942A000C9447000C9447000C94470071
:100010000C9447000C9447000C9447000C94470044
:100020000C9447000C9447000C9447000C94470034
:100030000C9447000C9447000C9447000C94470024
:100040000C9447000C9447000C9447000C94470014
:100050000C94470011241FBECFE5D8E0DEBFCDBF12
:1000600010E0A0E6B0E0EAE5F5E202C005900D92EE
:10007000AA3DB107D9F710E0AAEDB0E001C01D928A
:10008000A23EB107E1F70E9445110C94AB120C940B
:100090000000EF92FF920F931F937B018C0120E0F1
:1000A00030E040E05FE40E94F50388238CF0C80153
:1000B000B70120E030E040E05FE40E94C1010E940F
:1000C00055049B01AC01205030404040504806C0D0
:1000D000C801B7010E9455049B01AC01B901CA01D6
:1000E0001F910F91FF90EF900895A0E0B0E0EBE733
:1000F000F0E00C947412DC012B01FA019C91923017
:1001000008F439C1EB018881823008F433C194309E
:1001100069F4843009F02FC111969C91119789815F
:10012000981709F428C1A2EBB0E025C1843009F486
:1001300021C18230A9F4923009F01DC19A01AD01AC
:1001400088E0EA010990AE01E90109929E0181501F
:10015000C1F7E201898111969C918923818308C1AD
:10016000923009F407C112962D903C901397EB0141
:100170008A819B811496AD90BD90CD90DC901797AD
:10018000EC80FD800E811F819101281B390BB90184
:1001900037FF04C066277727621B730B6032710537
:1001A0000CF061C0121613066CF537014801062EDB
:1001B00004C096948794779467940A94D2F721E0C8
:1001C00030E040E050E004C0220F331F441F551FB1
:1001D0006A95D2F721503040404050402E213F21B7
:1001E00040235123211531054105510521F021E01E
:1001F00030E040E050E079018A01E628F72808293C
:1002000019293CC0232BD1F1260E371E350146019A
:10021000062E04C096948794779467940A94D2F734
:1002200021E030E040E050E004C0220F331F441FC3
:10023000551F6A95D2F721503040404050402A2146
:100240003B214C215D21211531054105510521F04E
:1002500021E030E040E050E059016A01A628B728CB
:10026000C828D9280BC0821593052CF01C01AA249C
:10027000BB24650103C0EE24FF24870111969C91E5
:10028000D20111968C91981709F445C0992339F041
:10029000A80197012A193B094C095D0906C0A6016E
:1002A00095012E193F09400B510B57FD08C01182D3
:1002B0003382228224833583468357831DC081E0A5
:1002C00081833382228288279927DC01821B930B4A
:1002D000A40BB50B84839583A683B7830DC0220F2F
:1002E000331F441F551F24833583468357838281E0
:1002F000938101979383828324813581468157813D
:10030000DA01C9010197A109B1098F5F9F4FAF4F72
:10031000BF4328F30BC0918333822282EA0CFB1C7B
:100320000C1D1D1DE482F5820683178383E0808304
:10033000248135814681578157FF1AC0C901AA27F8
:1003400097FDA095BA2F81709070A070B0705695EF
:10035000479537952795822B932BA42BB52B848318
:100360009583A683B7838281938101969383828349
:10037000DF0101C0D201CD01CDB7DEB7E2E10C94BF
:100380009012A0E2B0E0E7ECF1E00C9480126983F7
:100390007A838B839C832D833E834F835887E9E048
:1003A000EE2EF12CEC0EFD1ECE010196B7010E943F
:1003B0007E058E010F5E1F4FCE010596B8010E948B
:1003C0007E058A8991E089278A8BC701B801AE0131
:1003D000475E5F4F0E9475000E94A904A096E6E068
:1003E0000C949C12A0E2B0E0E8EFF1E00C948012D3
:1003F00069837A838B839C832D833E834F835887C5
:10040000F9E0EF2EF12CEC0EFD1ECE010196B701A6
:100410000E947E058E010F5E1F4FCE010596B8012A
:100420000E947E05C701B801AE01475E5F4F0E9482
:1004300075000E94A904A096E6E00C949C12A0E22C
:10044000B0E0E5E2F2E00C94741269837A838B8366
:100450009C832D833E834F835887CE010196BE0136
:10046000675F7F4F0E947E05CE010596BE016F5EDD
:100470007F4F0E947E059985923088F0898982306D
:10048000C8F0943019F4823051F404C0843029F457
:10049000923081F482EB90E0C6C0923049F420E0C3
:1004A0009A858A89981321E02A87CE010996BBC0D4
:1004B000823049F420E09A858A89981321E02A8BBA
:1004C000CE014196B0C02D843E844F8458886D88FB
:1004D0007E888F88988CEE24FF248701AA24BB2471
:1004E000650140E050E060E070E0E0E0F0E0C10174
:1004F00081709070892BE9F0E60CF71C081D191D1E
:100500009A01AB012A0D3B1D4C1D5D1D80E090E062
:10051000A0E0B0E0E614F7040805190520F481E036
:1005200090E0A0E0B0E0BA01A901480F591F6A1F8E
:100530007B1FAA0CBB1CCC1CDD1C97FE08C081E0F5
:1005400090E0A0E0B0E0A82AB92ACA2ADB2A3196B6
:10055000E032F10549F0660C771C881C991C569412
:10056000479437942794C3CFFA85EA892B893C892D
:100570008B859C85280F391F2E5F3F4F17C0CA01FE
:1005800081709070892B61F016950795F794E79428
:1005900080E090E0A0E0B0E8E82AF92A0A2B1B2BC3
:1005A00076956795579547952F5F3F4F77FDE7CF36
:1005B0000CC0440F551F661F771F17FD4160EE0CDE
:1005C000FF1C001F111F21503040403090E05907A0
:1005D00090E0690790E4790760F32B8F3C8FDB0193
:1005E000CA018F779070A070B07080349105A1051A
:1005F000B10561F447FD0AC0E114F10401051105DC
:1006000029F0405C5F4F6F4F7F4F40781A8EFE1786
:1006100011F081E08A8F4D8F5E8F6F8F78A383E01A
:10062000898FCE0149960E94A904A096E2E10C941C
:100630009012A8E1B0E0EFE1F3E00C947C12698342
:100640007A838B839C832D833E834F835887B9E0C5
:10065000EB2EF12CEC0EFD1ECE010196B7010E948F
:100660007E058E010F5E1F4FCE010596B8010E94D8
:100670007E052985223008F47EC03989323010F495
:10068000B8017CC08A859A8989278A87243011F02D
:10069000223031F4231709F06EC062EB70E06EC0B7
:1006A000343039F41D861E861F86188A1C861B86E8
:1006B00004C0323021F484E08987B7015FC02B8504
:1006C0003C858B899C89281B390B3C872B87ED84C3
:1006D000FE840F851889AD88BE88CF88D88CEA142F
:1006E000FB040C051D0540F4EE0CFF1C001F111F40
:1006F000215030403C872B8720E030E040E050E044
:1007000080E090E0A0E0B0E460E070E0EA14FB0478
:100710000C051D0540F0282B392B4A2B5B2BEA18C2
:10072000FB080C091D09B695A79597958795EE0CC2
:10073000FF1C001F111F6F5F7F4F6F31710531F775
:10074000DA01C9018F779070A070B0708034910584
:10075000A105B10561F427FD0AC0E114F10401050A
:10076000110529F0205C3F4F4F4F5F4F20782D87B8
:100770003E874F87588BBE01675F7F4FCB010E943A
:10078000A9046896EAE00C949812A8E1B0E0EBECBA
:10079000F3E00C94801269837A838B839C832D838E
:1007A0003E834F83588789E0E82EF12CEC0EFD1E26
:1007B000CE010196B7010E947E058E010F5E1F4F8C
:1007C000CE010596B8010E947E058985823040F0F1
:1007D0008989823028F0C701B8010E94F60501C05E
:1007E0008FEF6896E6E00C949C12A8E1B0E0EBEF86
:1007F000F3E00C94801269837A838B839C832D832E
:100800003E834F83588789E0E82EF12CEC0EFD1EC5
:10081000CE010196B7010E947E058E010F5E1F4F2B
:10082000CE010596B8010E947E058985823040F090
:100830008989823028F0C701B8010E94F60501C0FD
:100840008FEF6896E6E00C949C12A8E1B0E0EBE232
:10085000F4E00C94801269837A838B839C832D83CC
:100860003E834F83588789E0E82EF12CEC0EFD1E65
:10087000CE010196B7010E947E058E010F5E1F4FCB
:10088000CE010596B8010E947E058985823040F030
:100890008989823028F0C701B8010E94F60501C09D
:1008A00081E06896E6E00C949C12ACE0B0E0EBE5E9
:1008B000F4E00C94841269837A838B839C83CE0149
:1008C0000196BE016B5F7F4F0E947E058D81823055
:1008D00061F1823050F1843021F48E81882351F10E
:1008E0002EC02F81388537FD20C06E812F31310514
:1008F0001CF06623F9F023C08EE190E0821B930B7D
:1009000029853A854B855C8504C056954795379572
:1009100027958A95D2F76623B1F05095409530958A
:1009200021953F4F4F4F5F4F0EC020E030E040E039
:1009300050E009C02FEF3FEF4FEF5FE704C020E02A
:1009400030E040E050E8B901CA012C96E2E00C9496
:10095000A012DF92EF92FF920F931F93FC01E480AD
:10096000F58006811781D1808081823048F480E053
:1009700090E0A0E1B0E0E82AF92A0A2B1B2BA5C0E1
:10098000843009F49FC0823021F4EE24FF248701D3
:1009900005C0E114F1040105110519F4E0E0F0E0EF
:1009A00096C0628173819FEF623879070CF05BC05B
:1009B00022E83FEF261B370B2A3131052CF020E0CF
:1009C00030E040E050E02AC0B801A701022E04C088
:1009D00076956795579547950A94D2F781E090E010
:1009E000A0E0B0E004C0880F991FAA1FBB1F2A9582
:1009F000D2F70197A109B1098E219F21A023B1232C
:100A00000097A105B10521F081E090E0A0E0B0E001
:100A10009A01AB01282B392B4A2B5B2BDA01C90138
:100A20008F779070A070B07080349105A105B105EA
:100A300039F427FF09C0205C3F4F4F4F5F4F04C080
:100A4000215C3F4F4F4F5F4FE0E0F0E02030A0E0EF
:100A50003A07A0E04A07A0E45A0710F0E1E0F0E00E
:100A600079018A0127C06038710564F5FB01E158FE
:100A7000FF4FD801C7018F779070A070B07080349D
:100A80009105A105B10539F4E7FE0DC080E490E0C1
:100A9000A0E0B0E004C08FE390E0A0E0B0E0E80E9A
:100AA000F91E0A1F1B1F17FF05C016950795F7941F
:100AB000E794319687E016950795F794E7948A9521
:100AC000D1F705C0EE24FF248701EFEFF0E06E2F91
:100AD000679566276795902F9F77D794DD24D794E5
:100AE0008E2F8695492F462B582F5D29B701CA01B5
:100AF0001F910F91FF90EF90DF900895FC01DB01B3
:100B0000408151812281622F6F7770E0221F22275E
:100B1000221F9381892F880F822B282F30E0991F65
:100B20009927991F11969C93119721153105A9F5C5
:100B3000411551056105710511F482E037C082E865
:100B40009FEF13969C938E9312979A01AB0167E0E7
:100B5000220F331F441F551F6A95D1F783E08C93F2
:100B60000DC0220F331F441F551F12968D919C916B
:100B70001397019713969C938E931297203080E0E1
:100B8000380780E0480780E4580758F314962D93FF
:100B90003D934D935C93179708952F3F310579F45A
:100BA000411551056105710519F484E08C93089590
:100BB00064FF03C081E08C9312C01C9210C02F57B9
:100BC000304013963C932E93129783E08C9387E0EA
:100BD000440F551F661F771F8A95D1F770641496CE
:100BE0004D935D936D937C93179708951F93DC014C
:100BF000FB019C91923008F447C08081823008F458
:100C000043C0943051F411961C91843099F5818140
:100C1000682F70E0611B71093FC0843021F0923071
:100C200031F48230B9F18181882389F12DC0119688
:100C30001C9111978230F1F081811817D9F4129626
:100C40002D913C911397828193818217930794F0A1
:100C500028173907BCF014968D919D910D90BC9189
:100C6000A02D2481358146815781281739074A07ED
:100C70005B0718F4112341F00AC082179307A407F9
:100C8000B50740F4112319F061E070E005C06FEF83
:100C90007FEF02C060E070E0CB011F910895DF9309
:100CA000CF93CDB7DEB7EAE3F0E08FEF8083E7E3E1
:100CB000F0E08BEF8083E4E3F0E08FEF8083E1E30B
:100CC000F0E08FE08083EBE3F0E01082E8E3F0E017
:100CD00084E08083E5E3F0E01082E2E3F0E08FEF70
:100CE0008083CF91DF910895DF93CF9300D000D020
:100CF00000D0CDB7DEB78A836B834C8381E08983D4
:100D00008A81843008F0DCC08B81883008F0D8C03C
:100D10008C81813021F08C81882309F0D1C08A81B7
:100D2000282F30E03E832D838D819E818130910577
:100D3000D1F12D813E812230310509F463C08D81CE
:100D40009E81009709F08DC08C81882F90E08130C2
:100D50009105A1F4AAE3B0E0EAE3F0E08081482F36
:100D60008B81282F30E081E090E0022E02C0880FB6
:100D7000991F0A94E2F7842B8C93A3C0AAE3B0E0F6
:100D8000EAE3F0E08081482F8B81282F30E081E07A
:100D900090E0022E02C0880F991F0A94E2F7809516
:100DA00084238C938EC08C81882F90E081309105B4
:100DB000A1F4A7E3B0E0E7E3F0E08081482F8B8166
:100DC000282F30E081E090E0022E02C0880F991FAA
:100DD0000A94E2F7842B8C9374C0A7E3B0E0E7E3B6
:100DE000F0E08081482F8B81282F30E081E090E077
:100DF000022E02C0880F991F0A94E2F7809584237F
:100E00008C935FC08C81882F90E081309105A1F494
:100E1000A4E3B0E0E4E3F0E08081482F8B81282F49
:100E200030E081E090E0022E02C0880F991F0A9402
:100E3000E2F7842B8C9345C0A4E3B0E0E4E3F0E058
:100E40008081482F8B81282F30E081E090E0022EB6
:100E500002C0880F991F0A94E2F7809584238C932F
:100E600030C08C81882F90E081309105A1F4A1E3FE
:100E7000B0E0E1E3F0E08081482F8B81282F30E063
:100E800081E090E0022E02C0880F991F0A94E2F7D9
:100E9000842B8C9316C0A1E3B0E0E1E3F0E0808105
:100EA000482F8B81282F30E081E090E0022E02C095
:100EB000880F991F0A94E2F7809584238C9301C0D0
:100EC0001982898126960FB6F894DEBF0FBECDBF7A
:100ED000CF91DF910895DF93CF9300D000D000D061
:100EE000CDB7DEB78A836B834C8381E089838A81A7
:100EF000843008F0DCC08B81883008F0D8C08C8149
:100F0000882321F08C81813009F0D1C08A81282F7B
:100F100030E03E832D838D819E8181309105D1F11A
:100F20002D813E812230310509F463C08D819E817F
:100F3000009709F08DC08C81882F90E08130910559
:100F4000A1F4ABE3B0E0EBE3F0E08081482F8B81CC
:100F5000282F30E081E090E0022E02C0880F991F18
:100F60000A94E2F7842B8C93A3C0ABE3B0E0EBE3ED
:100F7000F0E08081482F8B81282F30E081E090E0E5
:100F8000022E02C0880F991F0A94E2F780958423ED
:100F90008C938EC08C81882F90E081309105A1F4D4
:100FA000A8E3B0E0E8E3F0E08081482F8B81282FB0
:100FB00030E081E090E0022E02C0880F991F0A9471
:100FC000E2F7842B8C9374C0A8E3B0E0E8E3F0E090
:100FD0008081482F8B81282F30E081E090E0022E25
:100FE00002C0880F991F0A94E2F7809584238C939E
:100FF0005FC08C81882F90E081309105A1F4A5E33A
:10100000B0E0E5E3F0E08081482F8B81282F30E0CD
:1010100081E090E0022E02C0880F991F0A94E2F747
:10102000842B8C9345C0A5E3B0E0E5E3F0E080813C
:10103000482F8B81282F30E081E090E0022E02C003
:10104000880F991F0A94E2F7809584238C9330C00F
:101050008C81882F90E081309105A1F4A2E3B0E06B
:10106000E2E3F0E08081482F8B81282F30E081E09F
:1010700090E0022E02C0880F991F0A94E2F7842B99
:101080008C9316C0A2E3B0E0E2E3F0E08081482F49
:101090008B81282F30E081E090E0022E02C0880F83
:1010A000991F0A94E2F7809584238C9301C01982DA
:1010B000898126960FB6F894DEBF0FBECDBFCF91C3
:1010C000DF910895DF93CF93CDB7DEB727970FB6A3
:1010D000F894DEBF0FBECDBF8A836B835D834C83E4
:1010E00081E089838A81843008F06EC08B818830EA
:1010F00008F06AC08C819D81009709F465C08A81DF
:10110000282F30E03F832E834E815F81413051058F
:10111000F9F08E819F818230910571F12E813F819E
:101120002115310509F03CC0E9E3F0E08081282F6A
:1011300030E08B81882F90E0A90102C0559547953A
:101140008A95E2F7CA018170EC81FD8180833DC000
:10115000E6E3F0E08081282F30E08B81882F90E05B
:10116000A90102C0559547958A95E2F7CA01817099
:10117000EC81FD81808329C0E3E3F0E08081282FAA
:1011800030E08B81882F90E0A90102C055954795EA
:101190008A95E2F7CA018170EC81FD81808315C0D8
:1011A000E0E3F0E08081282F30E08B81882F90E011
:1011B000A90102C0559547958A95E2F7CA01817049
:1011C000EC81FD81808301C01982898127960FB649
:1011D000F894DEBF0FBECDBFCF91DF910895DF93AE
:1011E000CF9300D000D00F92CDB7DEB78A836B8348
:1011F00081E089838A81843008F056C08B818130F8
:1012000021F08B81882309F04FC08A81282F30E09C
:101210003D832C838C819D8181309105C1F02C818F
:101220003D812230310511F18C819D81009769F556
:101230008B81882F90E08130910529F4EAE3F0E07A
:101240008FEF808332C0EAE3F0E010822EC08B8102
:10125000882F90E08130910529F4E7E3F0E08FEFEB
:10126000808323C0E7E3F0E010821FC08B81882FCA
:1012700090E08130910529F4E4E3F0E08FEF808382
:1012800014C0E4E3F0E0108210C08B81882F90E05E
:101290008130910529F4E4E3F0E08FEF808305C00D
:1012A000E4E3F0E0108201C0198289810F900F9071
:1012B0000F900F900F90CF91DF910895DF93CF9310
:1012C00000D000D00F92CDB7DEB78A836B8381E068
:1012D00089838A81843038F58A81282F30E03D83E4
:1012E0002C838C819D818130910571F02C813D8111
:1012F0002230310571F08C819D81009779F4EBE308
:10130000F0E08B81808310C0E8E3F0E08B81808384
:101310000BC0E5E3F0E08B81808306C0E2E3F0E000
:101320008B81808301C0198289810F900F900F906B
:101330000F900F90CF91DF910895DF93CF9300D05E
:1013400000D000D0CDB7DEB78A837C836B8381E089
:1013500089838A81843098F58B819C81009779F10B
:101360008A81282F30E03E832D838D819E818130BC
:10137000910581F02D813E812230310591F08D81E2
:101380009E810097A9F4E9E3F0E08081EB81FC8184
:10139000808316C0E6E3F0E08081EB81FC818083EE
:1013A0000FC0E3E3F0E08081EB81FC81808308C023
:1013B000E0E3F0E08081EB81FC81808301C0198251
:1013C000898126960FB6F894DEBF0FBECDBFCF91B0
:1013D000DF9108950F931F93DF93CF93CDB7DEB7BF
:1013E000CC54D0400FB6F894DEBF0FBECDBFFE0187
:1013F000E75BFF4F80E090E0ACE0B2E48083918354
:10140000A283B3838E010B5B1F4FFE01E75BFF4F8F
:10141000608171818281938120E030E04AEF54E461
:101420000E941F02DC01CB01F80180839183A2831B
:10143000B383FE01EB5BFF4F6081718182819381F9
:1014400020E030E040E85FE30E942504882344F474
:10145000FE01ED5BFF4F81E090E09183808364C0EB
:10146000FE01EB5BFF4F608171818281938120E0FF
:101470003FEF4FE757E40E94C50318160CF043C036
:10148000FE01E75BFF4F608171818281938120E0E3
:1014900030E040E251E40E941F02DC01CB018E01EA
:1014A0000D5B1F4FBC01CD010E944900DC01CB0147
:1014B000F801918380831FC0FE01EF5BFF4F88EC32
:1014C00090E091838083FE01EF5BFF4F80819181EB
:1014D0000197F1F7FE01EF5BFF4F91838083DE01FF
:1014E000AD5BBF4FFE01ED5BFF4F808191810197A6
:1014F00011969C938E93FE01ED5BFF4F808191814D
:101500000097D1F624C08E010D5B1F4FFE01EB5BEF
:10151000FF4F60817181828193810E944900DC01CB
:10152000CB01F80191838083FE01ED5BFF4F808149
:101530009181FE01FF9691838083FE01FF96808159
:1015400091810197F1F7FE01FF969183808388E3F3
:101550000E94AD0C80E090E0A0E2B2E48BAF9CAFC3
:10156000ADAFBEAF6BAD7CAD8DAD9EAD2BEA3AEAB3
:101570004AE250E40E941F02DC01CB018FAB98AF1E
:10158000A9AFBAAF6FA978AD89AD9AAD20E030E0D0
:1015900040E85FE30E94250488231CF481E08EABC1
:1015A00091C06FA978AD89AD9AAD20E030E04FE7EA
:1015B00053E40E94C50318160CF07BC06BAD7CADE4
:1015C0008DAD9EAD20E030E04AE754E40E9419035F
:1015D000DC01CB018AAB9BABACABBDAB6AA97BA9F1
:1015E0008CA99DA920E030E04AEF54E40E941F023C
:1015F000DC01CB018EA79FA7A8ABB9AB6EA57FA5D9
:1016000088A999A920E030E040E85FE30E94250422
:1016100088232CF481E090E09DA78CA73FC06EA5A5
:101620007FA588A999A920E03FEF4FE757E40E94E2
:10163000C50318164CF56AA97BA98CA99DA920E0C1
:1016400030E040E251E40E941F02DC01CB01BC010A
:10165000CD010E944900DC01CB019DA78CA70FC0E2
:1016600088EC90E09BA78AA78AA59BA50197F1F734
:101670009BA78AA78CA59DA501979DA78CA78CA544
:101680009DA5009769F724C06EA57FA588A999A993
:101690000E944900DC01CB019DA78CA78CA59DA5CC
:1016A00099A788A788A599A50197F1F799A788A771
:1016B0000FC06FA978AD89AD9AAD0E944900DC01D9
:1016C000CB018EAB8EA98FA38FA18A95F1F78FA343
:1016D0008FE00E94AD0C80E090E0A0E2B2E48BA32A
:1016E0009CA3ADA3BEA36BA17CA18DA19EA12BEA5F
:1016F0003AEA4AE250E40E941F02DC01CB018F8FDC
:1017000098A3A9A3BAA36F8D78A189A19AA120E07B
:1017100030E040E85FE30E94250488231CF481E068
:101720008E8F91C06F8D78A189A19AA120E030E0C1
:101730004FE753E40E94C50318160CF07BC06BA161
:101740007CA18DA19EA120E030E04AE754E40E94F4
:101750001903DC01CB018A8F9B8FAC8FBD8F6A8D03
:101760007B8D8C8D9D8D20E030E04AEF54E40E940B
:101770001F02DC01CB018E8B9F8BA88FB98F6E89E6
:101780007F89888D998D20E030E040E85FE30E94FA
:10179000250488232CF481E090E09D8B8C8B3FC046
:1017A0006E897F89888D998D20E03FEF4FE757E460
:1017B0000E94C50318164CF56A8D7B8D8C8D9D8D0E
:1017C00020E030E040E251E40E941F02DC01CB0146
:1017D000BC01CD010E944900DC01CB019D8B8C8BAB
:1017E0000FC088EC90E09B8B8A8B8A899B8901973C
:1017F000F1F79B8B8A8B8C899D8901979D8B8C8BB4
:101800008C899D89009769F724C06E897F89888DAE
:10181000998D0E944900DC01CB019D8B8C8B8C89BA
:101820009D89998B888B888999890197F1F7998B84
:10183000888B0FC06F8D78A189A19AA10E94490061
:10184000DC01CB018E8F8E8D8F878F858A95F1F786
:101850008F8781E00E94AD0C80E090E0A0E0B0E4D2
:101860008B879C87AD87BE876B857C858D859E85A4
:1018700020E030E04AEF54E40E941F02DC01CB017B
:101880008F839887A987BA876F81788589859A859C
:1018900020E030E040E85FE30E94250488232CF438
:1018A00081E090E09E838D833FC06F81788589853C
:1018B0009A8520E03FEF4FE757E40E94C5031816D2
:1018C0004CF56B857C858D859E8520E030E040E27F
:1018D00051E40E941F02DC01CB01BC01CD010E943A
:1018E0004900DC01CB019E838D830FC088EC90E022
:1018F0009C838B838B819C810197F1F79C838B83E5
:101900008D819E8101979E838D838D819E8100971D
:1019100069F714C06F81788589859A850E9449008E
:10192000DC01CB019E838D838D819E819A83898387
:1019300089819A810197F1F79A83898386E00E94D1
:10194000AD0CC45BDF4F0FB6F894DEBF0FBECDBF4A
:10195000CF91DF911F910F910895DF93CF93CDB772
:10196000DEB769970FB6F894DEBF0FBECDBF898F83
:1019700081E063E040E00E946B0781E064E040E0CA
:101980000E946B0780E0698D0E945E0981E065E03E
:1019900041E00E946B0780E090E0A0E8BFE38D8B00
:1019A0009E8BAF8BB88F6D897E898F89988D2BEA3E
:1019B0003AEA4AE250E40E941F02DC01CB01898B23
:1019C0009A8BAB8BBC8B69897A898B899C8920E047
:1019D00030E040E85FE30E94250488231CF481E0A6
:1019E000888B91C069897A898B899C8920E030E055
:1019F0004FE753E40E94C50318160CF07BC06D89B5
:101A00007E898F89988D20E030E04AE754E40E9477
:101A10001903DC01CB018C879D87AE87BF876C855E
:101A20007D858E859F8520E030E04AEF54E40E945A
:101A30001F02DC01CB0188879987AA87BB8768854D
:101A400079858A859B8520E030E040E85FE30E944D
:101A5000250488232CF481E090E09F838E833FC08F
:101A6000688579858A859B8520E03FEF4FE757E4BD
:101A70000E94C50318164CF56C857D858E859F8563
:101A800020E030E040E251E40E941F02DC01CB0183
:101A9000BC01CD010E944900DC01CB019F838E83F4
:101AA0000FC088EC90E09D838C838C819D81019791
:101AB000F1F79D838C838E819F8101979F838E8315
:101AC0008E819F81009769F724C0688579858A8512
:101AD0009B850E944900DC01CB019F838E838E8110
:101AE0009F819B838A838A819B810197F1F79B83E6
:101AF0008A830FC069897A898B899C890E944900F1
:101B0000DC01CB01888B8889898389818A95F1F7EB
:101B1000898381E065E040E00E946B0769960FB61B
:101B2000F894DEBF0FBECDBFCF91DF910895DF9354
:101B3000CF93CDB7DEB769970FB6F894DEBF0FBE6F
:101B4000CDBF898F81E063E041E00E946B0781E0B7
:101B500064E040E00E946B0780E0698D0E945E09AE
:101B600081E065E041E00E946B0780E090E0A0E842
:101B7000BFE38D8B9E8BAF8BB88F6D897E898F89EC
:101B8000988D2BEA3AEA4AE250E40E941F02DC01F7
:101B9000CB01898B9A8BAB8BBC8B69897A898B89BA
:101BA0009C8920E030E040E85FE30E942504882320
:101BB0001CF481E0888B91C069897A898B899C8922
:101BC00020E030E04FE753E40E94C50318160CF004
:101BD0007BC06D897E898F89988D20E030E04AE74F
:101BE00054E40E941903DC01CB018C879D87AE87EA
:101BF000BF876C857D858E859F8520E030E04AEF2C
:101C000054E40E941F02DC01CB0188879987AA87D0
:101C1000BB87688579858A859B8520E030E040E830
:101C20005FE30E94250488232CF481E090E09F83E9
:101C30008E833FC0688579858A859B8520E03FEF4C
:101C40004FE757E40E94C50318164CF56C857D8557
:101C50008E859F8520E030E040E251E40E941F0223
:101C6000DC01CB01BC01CD010E944900DC01CB01AC
:101C70009F838E830FC088EC90E09D838C838C8142
:101C80009D810197F1F79D838C838E819F810197C0
:101C90009F838E838E819F81009769F724C068851A
:101CA00079858A859B850E944900DC01CB019F8351
:101CB0008E838E819F819B838A838A819B810197FA
:101CC000F1F79B838A830FC069897A898B899C8904
:101CD0000E944900DC01CB01888B88898983898136
:101CE0008A95F1F7898381E065E040E00E946B0707
:101CF00069960FB6F894DEBF0FBECDBFCF91DF91CE
:101D00000895DF93CF93CDB7DEB761970FB6F89400
:101D1000DEBF0FBECDBF998B888B1F8688899989BE
:101D2000009709F48DC080C08F85282F30E0888906
:101D30009989FC01E20FF31F80810E94970D8F8526
:101D40008F5F8F8780E090E0A0E2B1E48B879C8773
:101D5000AD87BE876B857C858D859E8520E030E0D4
:101D60004AEF54E40E941F02DC01CB018F83988765
:101D7000A987BA876F81788589859A8520E030E0C8
:101D800040E85FE30E94250488232CF481E090E082
:101D90009E838D833FC06F81788589859A8520E0F9
:101DA0003FEF4FE757E40E94C50318164CF56B85CB
:101DB0007C858D859E8520E030E040E251E40E94E4
:101DC0001F02DC01CB01BC01CD010E944900DC01F6
:101DD000CB019E838D830FC088EC90E09C838B8326
:101DE0008B819C810197F1F79C838B838D819E81F0
:101DF00001979E838D838D819E81009769F714C022
:101E00006F81788589859A850E944900DC01CB0124
:101E10009E838D838D819E819A83898389819A8116
:101E20000197F1F79A8389838F85282F30E088897D
:101E30009989FC01E20FF31F8081882309F074CF98
:101E400061960FB6F894DEBF0FBECDBFCF91DF9184
:101E50000895DF93CF9300D00F92CDB7DEB78A837A
:101E60006B8381E089838A81813019F08A81823095
:101E700099F48B81883280F48A81882F90E08130B8
:101E8000910529F48B8180580E94AD0C06C08B818E
:101E900080540E94AD0C01C0198289810F900F906F
:101EA0000F90CF91DF910895DF93CF93CDB7DEB739
:101EB0002C970FB6F894DEBF0FBECDBF8C837E8308
:101EC0006D834F83288781E08B838C81883008F075
:101ED000C1C08F81813021F08F81823009F0BAC07A
:101EE0008885883208F0B6C08C81282F30E03C8786
:101EF0002B878B859C858330910581F12B853C85D3
:101F0000243031057CF48B859C8581309105F1F07E
:101F10002B853C8522303105ECF48B859C85009720
:101F200089F02CC02B853C8525303105F9F08B8557
:101F30009C8585309105B4F02B853C852630310594
:101F4000C9F01CC080E40E94AD0C1BC088E40E9454
:101F5000AD0C17C080E50E94AD0C13C088E50E944F
:101F6000AD0C0FC080E60E94AD0C0BC088E60E944D
:101F7000AD0C07C080E70E94AD0C03C088E70E944B
:101F8000AD0C1A8219820FC029813A818D819E8100
:101F9000FC01E20FF31F80810E94970D89819A81D5
:101FA00001969A83898389819A818830910564F3A7
:101FB0008F8168850E94290F8C81282F30E03A8715
:101FC000298789859A858330910581F129853A850C
:101FD000243031057CF489859A8581309105F1F0B2
:101FE00029853A8522303105ECF489859A85009758
:101FF00089F02CC029853A8525303105F9F089858D
:102000009A8585309105B4F029853A8526303105C9
:10201000C9F01CC080E00E94970D1DC081E00E94A5
:10202000970D19C082E00E94970D15C083E00E94B1
:10203000970D11C084E00E94970D0DC085E00E94AD
:10204000970D09C086E00E94970D05C087E00E94A9
:10205000970D01C01B828B812C960FB6F894DEBFC2
:102060000FBECDBFCF91DF910895DF93CF93CDB752
:10207000DEB765970FB6F894DEBF0FBECDBF9D8B60
:102080008C8BEC89FD898FEF80831A8A81E0898BA4
:102090001B8A8C899D89009709F4ECC0188AE5C0D9
:1020A0008889882F90E0FC01EE53FF4F908183E0F8
:1020B000692F40E00E946B071F86C1C08F85882F63
:1020C00090E0FC01EA53FF4F90819E012D5E3F4F4F
:1020D00083E0692FA9010E9462088B89882309F097
:1020E000ABC080E090E0A0EAB1E48B879C87AD872D
:1020F000BE876B857C858D859E8520E030E04AEF2C
:1021000054E40E941F02DC01CB018F839887A987CA
:10211000BA876F81788589859A8520E030E040E82C
:102120005FE30E94250488232CF481E090E09E83E5
:102130008D833FC06F81788589859A8520E03FEF48
:102140004FE757E40E94C50318164CF56B857C8554
:102150008D859E8520E030E040E251E40E941F0220
:10216000DC01CB01BC01CD010E944900DC01CB01A7
:102170009E838D830FC088EC90E09C838B838B8142
:102180009C810197F1F79C838B838D819E810197C0
:102190009E838D838D819E81009769F714C06F8126
:1021A000788589859A850E944900DC01CB019E8350
:1021B0008D838D819E819A83898389819A810197FC
:1021C000F1F79A8389838F85882F90E0FC01EA5389
:1021D000FF4F90819E012D5E3F4F83E0692FA90143
:1021E0000E9462080FC08F85882F90E0FC01EA539F
:1021F000FF4F90819E012D5E3F4F83E0692FA90123
:102200000E9462088B89882371F38889482F50E0E7
:102210008F85282F30E0CA01880F991F880F991FDA
:10222000820F931FFC01E653FF4F8081EC89FD89EB
:10223000808381E08A8B07C08F858F5F8F878F8532
:10224000843008F43BCF8889882F90E0FC01EE535E
:10225000FF4F908183E0692F41E00E946B078A89DC
:10226000813049F088898F5F888B8889843008F4B1
:1022700017CF01C0198A898965960FB6F894DEBF19
:102280000FBECDBFCF91DF910895DF93CF93CDB730
:10229000DEB72E970FB6F894DEBF0FBECDBF0E94FB
:1022A0004F060E94EA0980E690E00E94810E82E0DB
:1022B00060E00E94290FD3C08AED90E00E943510A3
:1022C0008091DA008F3F09F4C6C08091DA0084342F
:1022D00031F481E00E94AD0C1092DB00C0C09091FF
:1022E000DB002AEB30E082E0B90142E0292F0E94B6
:1022F000540F8091DB00882F90E02091DA00FC01E0
:10230000E452FF4F20838091DB008F5F8093DB00DE
:102310008091DB00843009F09EC08091DC00813325
:1023200009F099C08091DD00823309F094C080915A
:10233000DE00833309F08FC08091DF00843309F021
:102340008AC081E060E00E94290F81E00E94AD0C0C
:102350008FE690E00E94810E82E060E00E94290FEB
:1023600080E890E00E94810E8091E1008F5F809371
:10237000E10080E090E0A8ECB2E48B879C87AD8719
:10238000BE876B857C858D859E8520E030E04AEF99
:1023900054E40E941F02DC01CB018F839887A98738
:1023A000BA876F81788589859A8520E030E040E89A
:1023B0005FE30E94250488232CF481E090E09E8353
:1023C0008D833FC06F81788589859A8520E03FEFB6
:1023D0004FE757E40E94C50318164CF56B857C85C2
:1023E0008D859E8520E030E040E251E40E941F028E
:1023F000DC01CB01BC01CD010E944900DC01CB0115
:102400009E838D830FC088EC90E09C838B838B81AF
:102410009C810197F1F79C838B838D819E8101972D
:102420009E838D838D819E81009769F714C06F8193
:10243000788589859A850E944900DC01CB019E83BD
:102440008D838D819E819A83898389819A81019769
:10245000F1F79A8389838091E100882329F48091A0
:10246000DB00843008F428CF8091E100882389F5CF
:102470008091E0008F5F8093E0008091E0008330E6
:10248000A1F481E061E041E00E946B0781E00E94DD
:10249000AD0C8BE890E00E94810E81E00E94AD0CB3
:1024A0008AE990E00E94810E14C01092DB0081E066
:1024B0000E94AD0C8BE890E00E94810E81E00E94AA
:1024C000AD0C88EA90E00E94810E81E00E94AD0C84
:1024D000E8CE80E090E02E960FB6F894DEBF0FBEF7
:1024E000CDBFCF91DF9108952F923F924F925F928F
:1024F0006F927F928F929F92AF92BF92CF92DF9214
:10250000EF92FF920F931F93CF93DF93CDB7DEB778
:10251000CA1BDB0B0FB6F894DEBF0FBECDBF09940C
:102520002A88398848885F846E847D848C849B8463
:10253000AA84B984C884DF80EE80FD800C811B8171
:10254000AA81B981CE0FD11D0FB6F894DEBF0FBEA0
:0A255000CDBFED010895F894FFCF10
:10255A00456E746572205061737377617264007797
:10256A00656C636F6D6520546F204D6F746F7200D8
:10257A004465736820426F6172640077726F6E6798
:10258A00205061737377617264006163636573736A
:10259A00206661696C65640074727920616761699B
:1025AA006E0000000000000000000004150E150473
:1025BA00000000010203040506073738392F3435B5
:0A25CA00362A3132332D44303D2B08
:00000001FF
